:1000000002161643B30843B40843B31043B4104375
:10001000B30843B31053C0FE75BE2743C040439B93
:100020000143A880225388BFE4F58BF58D438840B7
:0100300022AD
:0700330002139443E8402290
:10003B00021561E4FF5388BFAF8DEFFEAD8B7C00E3
:10004B00E42DFFEC3EFE43884022E5E8540FFF22EF
:10005B0002182CAB07AA067F007E007D007C00AE49
:10006B0002AF037C037DFF12065EE47BFF7A0FF980
:10007B00F812052A22C29122020FC20203CEE864B3
:10008B0080F8E933E83360110460F0ED33EC337042
:10009B0009E8FCE9FDEAFEEBFF220460DED3EB9FEF
:1000AB00EA9EE99DE8C2E78CF0C2F795F0400CE8B8
:1000BB00CCF8E9CDF9EACEFAEBCFFB12039985D058
:1000CB00F05804700320D5B3E80470075002B2D582
:1000DB000203D892D5EC0460F7E4CCC0E0C398F8E7
:1000EB00603B94186008400DD0E0FB0203B0E4FBCA
:1000FB00FAC9FC8028E830E406E4C9FBE4CAFCE852
:10010B0030E305E4C9CACBFCE854076010F8C3E937
:10011B0013F9EA13FAEB13FBEC13FCD8F130F52FC0
:10012B00C3E49CFCEF9BFFEE9AFEED99FDD0E0FB48
:10013B00EF4E4D4C701222DB030203D5EC2CFCEF7F
:10014B0033FFEE33FEED33FDED30E7EB0203B0EFA3
:10015B002BFFEE3AFEED39FDD0E0FB50130BBB004D
:10016B00030203D8ED13FDEE13FEEF13FFEC13FCAC
:10017B000203B0EC4D6011E8497017ED33EC33041A
:10018B00600DE4FCFFFEFD22E933E8330470F80256
:10019B0003CE12039958046009E4CC24815006283D
:1001AB0050090203D82840030203D5C0E0EB4A7084
:1001BB0044B98006D0E0FB0203C4EF4E701CBD8037
:1001CB0008EBFFEAFEE9FD80EBE98DF0A4FEE5F01C
:1001DB00020267E9CDF9EAFEEBFFEF89F0A4FCE53B
:1001EB00F0CE89F0A42EFFE435F0CD89F0A42DFEDE
:1001FB00E435F08067EF4E7005BD80D780C3EF8B81
:10020B00F0A4ACF0EE8BF0A42CFCE435F0F8EF8A04
:10021B00F0A42CE5F038FCE433CB8DF0A42CFCE5FA
:10022B00F03BF8EE8AF0A42CFCE5F038F8E433CF81
:10023B0089F0A42CFCE5F038CF3400CE89F0A42F44
:10024B00FFE5F03EFEE433C98DF0A42EFEE5F03958
:10025B00CD8AF0A42FFFE5F03EFEE43DFD33D0E068
:10026B00FB50070BBB000F0203D8EC2CFCEF33FF4A
:10027B00EE33FEED33FD0203B00203D8EC5D0460F8
:10028B0005E8590470030203CE120399580460F673
:10029B00EC4860F2EC7004FDFEFF22C860DB2481A9
:1002AB00C85009C398600250060203D59850CAF58E
:1002BB0082E9294B4A7005AB820203C475F0007CBE
:1002CB001A7880C3EF9BEE9AED99400DC3EF9BFF1D
:1002DB00EE9AFEED99FDE842F0DC23ACF0D0E0FFA6
:1002EB00D0E0FED0E0FDAB8220E7101BEB60BAEC58
:1002FB002CFCEF33FFEE33FEED33FD0203B0E803CE
:10030B00F830E705C0F075F000EF2FFFEE33FEED90
:10031B0033FD40B830E7C280AA75F020800E75F02F
:10032B0010800575F0087D007E007F003392D5307C
:10033B00D5031205BCEC334010EF33FFEE33FEED6B
:10034B0033FDEC33FCD5F0ED22E5F0247EA2D51382
:10035B00CC92E7CDCEFF22EDD2E7CD33EC3392D565
:10036B0024814006E4FFFEFDFC22FCE4CFCECDCC85
:10037B0024E0501174FF80EDC3CC13CCCD13CDCE44
:10038B0013CECF13CF0470F030D5DE0205BCE9D20B
:10039B00E7C933E833F892D5EDD2E7CD33EC33FC34
:1003AB005002B2D522EC30E7100FBF000C0EBE008E
:1003BB00080DBD00040BEB6014A2D5EB13FCED9202
:1003CB00E7FD2274FFFCFDFEFF22E480F8A2D5744A
:1003DB00FF13FC7D80E480EFBB010689828A83E0FA
:1003EB00225002E722BBFE02E32289828A83E49336
:1003FB0022BB010CE58229F582E5833AF583E022E5
:10040B005006E92582F8E622BBFE06E92582F8E2D2
:10041B0022E58229F582E5833AF583E49322BB0139
:10042B000689828A83F0225002F722BBFE01F32257
:10043B00EF8DF0A4A8F0CF8CF0A428CE8DF0A42ED5
:10044B00FE22BC000BBE0029EF8DF084FFADF02225
:10045B00E4CCF875F008EF2FFFEE33FEEC33FCEE37
:10046B009DEC984005FCEE9DFE0FD5F0E9E4CEFD2A
:10047B0022EDF8F5F0EE8420D21CFEADF075F008FD
:10048B00EF2FFFED33FD4007985006D5F0F222C356
:10049B0098FD0FD5F0EA22C2D5EC30E709B2D5E4CE
:1004AB00C39DFDE49CFCEE30E715B2D5E4C39FFF82
:1004BB00E49EFE12044DC3E49DFDE49CFC800312FC
:1004CB00044D30D507C3E49FFFE49EFE22C5F0F830
:1004DB00A3E028F0C5F0F8E582158270021583E0E1
:1004EB0038F02275F008758200EF2FFFEE33FECD4A
:1004FB0033CDCC33CCC58233C5829BED9AEC99E5D9
:10050B008298400CF582EE9BFEED9AFDEC99FC0F68
:10051B00D5F0D6E4CEFBE4CDFAE4CCF9A88222B830
:10052B0000C1B90059BA002DEC8BF084CFCECDFCB5
:10053B00E5F0CBF97818EF2FFFEE33FEED33FDEC42
:10054B0033FCEB33FB10D703994004EB99FB0FD82B
:10055B00E5E4F9FA227818EF2FFFEE33FEED33FDC9
:10056B00EC33FCC933C910D7059BE99A4007EC9BC8
:10057B00FCE99AF90FD8E0E4C9FAE4CCFB2275F058
:10058B0010EF2FFFEE33FEED33FDCC33CCC833C869
:10059B0010D7079BEC9AE899400AED9BFDEC9AFC6F
:1005AB00E899F80FD5F0DAE4CDFBE4CCFAE4C8F91E
:1005BB0022C3E49FFFE49EFEE49DFDE49CFC22EB42
:1005CB009FF5F0EA9E42F0E99D42F0E89C45F0224F
:1005DB00E86010ECA2E713FCED13FDEE13FEEF1336
:1005EB00FFD8F022ECF0A3EDF0A3EEF0A3EFF02296
:1005FB00A8828583F0D083D08212061212061212C3
:10060B000612120612E473E493A3C583C5F0C583E7
:10061B00C8C582C8F0A3C583C5F0C583C8C582C849
:10062B0022A42582F582E5F03583F58322D083D091
:10063B0082F8E4937012740193700DA3A393F87472
:10064B000193F5828883E4737402936860EFA3A32C
:10065B00A380DFEC8EF0A4CCC5F0CCCDF8EFA4CE0C
:10066B00C5F02DFDE43CFCE8A42EC8C5F03DFDE42F
:10067B003CFCEFA4FFE5F028FEE43DFDE43CFC224E
:10068B009000C7E0D394005003020BFC900096E05F
:10069B00A3E09000C3F09000CEE090009EF0E490B9
:1006AB0000CAF09000CAE0FFC39405505F90009819
:1006BB00E0FE9000C3E0FDC39E405174982FF5827D
:1006CB00E43400F583E0FFEDC39F40239000CAE0C4
:1006DB002499F582E43400F583E0FFEDC39F500FBE
:1006EB009000CAE09000BCF0049000BAF0801D901E
:1006FB00009CE0FFEDC39F400B9000BC7403F09097
:10070B0000BA04F09000CAE004F08097E49000CAAD
:10071B00F09000A8E0FF90009EE0C39F503F900038
:10072B00BCE025E02404F582E43400F583E0FCA36F
:10073B00E0FDE41203299000D11205EF9000BAE01E
:10074B0025E02404F582E43400F583E0FCA3E0FD0E
:10075B00E41203299000D51205EF0209739000CA29
:10076B00E0FF24A8F582E43400F583E0FE90009EC0
:10077B00E0FDC39E500302091C74A92FF582E434DB
:10078B0000F583E0FFEDC39F400302091C9000CAF4
:10079B00E0FF75F00AA4240EF582E43400F583C063
:1007AB0083C0829000BCE0FED082D08375F0021231
:1007BB00062CE0A3E0FDEF75F00AA42404F582E417
:1007CB003400F58375F002EE12062CE0A3E0C39D16
:1007DB009000A0F09000CAE0FF75F00AA4240EF57B
:1007EB0082E43400F583C083C0829000BAE0FED06F
:1007FB0082D08375F00212062CE0A3E0FDEF75F0BA
:10080B000AA42404F582E43400F58375F002EE1299
:10081B00062CE0A3E0C39D90009DF09000CAE0245D
:10082B00A8F582E43400F583E0FF90009EE0C39FBF
:10083B00FFE49400FE9000A0E0FD7C0012043BACB2
:10084B0006AD07EC120329E4FBFAF9784012028794
:10085B00C004C005C006C0079000CAE075F00AA42A
:10086B002404F582E43400F583C083C0829000BC7D
:10087B00E0D082D08375F00212062CE0FCA3E0FDE1
:10088B00E4120329D003D002D001D00012008990CA
:10089B0000D11205EF9000CAE024A8F582E43400E1
:1008AB00F583E0FF90009EE0C39FFFE49400FE9071
:1008BB00009DE0FD7C0012043BAC06AD07EC12037F
:1008CB0029E4FBFAF97840120287C004C005C00680
:1008DB00C0079000CAE075F00AA42404F582E43442
:1008EB0000F583C083C0829000BAE0D082D08375BC
:1008FB00F00212062CE0FCA3E0FDE4120329D00366
:10090B00D002D001D0001200899000D51205EF80E3
:10091B00579000B5E0FF90009EE0C39F403C9000D5
:10092B00BCE025E02486F582E43400F583E0FCA3EB
:10093B00E0FDE41203299000D11205EF9000BAE01C
:10094B0025E02486F582E43400F583E0FCA3E0FD8A
:10095B00E41203299000D51205EF9000CAE004F0D1
:10096B00E0640E600302071C9000BCE02498F58243
:10097B00E43400F583E0FF9000C3E0C39FFDE494F3
:10098B0000FC120329C004C005C006C0079000D5A7
:10099B00E0F8A3E0F9A3E0FAA3E0FB9000D1E0FCC0
:1009AB00A3E0FDA3E0FEA3E0FF120089D003D00279
:1009BB00D001D00012017EE4FBFA79A0784012023C
:1009CB0087A804A905AA06AB079000D1E0FCA3E019
:1009DB00FDA3E0FEA3E0FF1200899000DF1205EFFC
:1009EB0090009EE0FF9000C7E0C39FFDE49400FCE5
:1009FB001203299000DFE0F8A3E0F9A3E0FAA3E0EB
:100A0B00FB12017EE4FBFA7920784112017EC004CF
:100A1B00C005C006C00790009EE0FFC374379FFD62
:100A2B00E49400FC120329A804A905AA06AB07D07D
:100A3B0007D006D005D0041202879000B61205EF3E
:100A4B009000B6E0FCA3E0FDA3E0FEA3E0FF1203E1
:100A5B00627C007D0A1204A2C3ED9405EC648094C1
:100A6B0080402FE4FBFA792078419000B6E0FCA39C
:100A7B00E0FDA3E0FEA3E0FF120287E4FBFA79801E
:100A8B00783F12008D120362900093EEF0A3EFF00B
:100A9B008023E4FBFA792078419000B6E0FCA3E0D8
:100AAB00FDA3E0FEA3E0FF12028712036290009306
:100ABB00EEF0A3EFF09000CEE0FF9000C7E0D39FE5
:100ACB004011900093E0FFA3E090017CCFF0A3EFE7
:100ADB00F08007E490017CF0A3F09000C7E0FF905A
:100AEB0000D0E0D39F401B90017CE0FEA3E0FF7C95
:100AFB00007D0912043B0D12044D90017CEEF0A316
:100B0B00EFF09000C7E0FF9000D0E0C39F400302DE
:100B1B000BAA9000C7E024F4FF9000D0E0C39F50D5
:100B2B0002D2079000C7E024FAFF9000D0E0C39FE9
:100B3B00502130076A90017CE0FEA3E0FF7C007D32
:100B4B000E12043B7D0A12044D90017CEEF0A3EFD4
:100B5B00F0804C9000C7E014FF9000D0E0C39F5092
:100B6B002130073B90017CE0FEA3E0FF7C007D0C75
:100B7B0012043B7D0A12044D90017CEEF0A3EFF0C2
:100B8B00801DC20790017CE0FEA3E0FF7C007D0B83
:100B9B0012043B1D12044D90017CEEF0A3EFF0D339
:100BAB0090017DE094C890017CE094004006E4F055
:100BBB00A374C8F090017CE0FEA3E0FF7C007D0AEB
:100BCB0012044D90016EEFF090017CE0A3E0FF90DA
:100BDB00016EE075F00AA4FEC3EF9E900157F090F2
:100BEB00016EE0D3941440187414F0E4900157F0A4
:100BFB0022E490017CF0A3F090016EF0900157F08D
:100C0B002212195912192E12196E12197A121982EF
:100C1B0012191C12193612194412193D12195212BB
:100C2B00194B12008012198F12199B121992120074
:100C3B00031218F0900158E0B40102E4F090015B4C
:100C4B00E0B40102E4F090015CE064016003020D8A
:100C5B00B2F0900169E06401703AF012197EEF2452
:100C6B00FD601B04702E900178E0FEA3E0FF1200E4
:100C7B005E9000BEEEF0A3EFF012192580169001E6
:100C8B0078E0FEA3E0FF12005E9000C1EEF0A3EF50
:100C9B00F012191C9000BEE0FEA3E0FFD394E8EE27
:100CAB0094035009C3EF940AEE940050099000C5C9
:100CBB00E04420F080079000C5E054DFF09000C1C5
:100CCB00E0FEA3E0FFD394E8EE94035009C3EF9446
:100CDB000AEE940050099000C5E04410F080079094
:100CEB0000C5E054EFF0C39000BFE094809000BECD
:100CFB00E0940150077401F0A37480F0C39000C21C
:100D0B00E094809000C1E0940150077401F0A3744B
:100D1B0080F09000BEE0FEA3E0FF7B017A0079CE6D
:100D2B001216B09000C1E0FEA3E0FF7B017A0079C0
:100D3B00D01216B09000D0E0D3943C40099000C57F
:100D4B00E04402F080079000C5E054FDF09000E312
:100D5B00E024FE602104704F121989400E12199B7A
:100D6B009000C5E04408F0D208803C9000C5E054E8
:100D7B00F7F0C2088031121989402312199BE490B5
:100D8B000093F0A3F090017CF0A3F090016EF09033
:100D9B000157F09000C5E04408F0D20380099000A1
:100DAB00C5E054F7F0C203900171E06401600302E7
:100DBB000E47F0300B677B017A0079A17D02121789
:100DCB007A9000A3E06F70559000A1E09000CCF0FA
:100DDB009000A2E09000CDF0E09000C7F09000CC26
:100DEB00E030E00D9000E37401F0D20212199B8009
:100DFB000F9000CCE030E1089000E37402F0D201D8
:100E0B009000C7E07006900002F0800F9000C7E0E2
:100E1B00D3940040069000027401F0C20B9000E3E3
:100E2B00E0147018E4900093F0A3F090017CF0A311
:100E3B00F090016EF0900157F012199B900172E047
:100E4B0064017035F0200D259000C5E09000A4F0F2
:100E5B009000D0E09000A5F07B017A0079A47D0290
:100E6B0012177A9000A6EFF01219608006300D036E
:100E7B0012196743C02053C0F7900155E06401601D
:100E8B0003020F44F09000E3E024FE6006020F44DF
:100E9B00020F44900002E0146020046003020F4430
:100EAB00E4900093F0A3F090017CF0A3F090016E1E
:100EBB00F0900157F012199B807F9000C5E020E164
:100ECB0010E020E20CE020E308E020E404E030E551
:100EDB00089000BD7401F08005E49000BDF0900017
:100EEB00BDE014603C047051121989402312199B08
:100EFB00E4900093F0A3F090017CF0A3F090016ECE
:100F0B00F0900157F09000C5E04408F0D20380291F
:100F1B001219989000C5E054F7F0C20312068B80AB
:100F2B0018E4900093F0A3F090017CF0A3F09001F3
:100F3B006EF0900157F012199B900167E0640170FD
:100F4B0066F0121972900096EEF0A3EFF01219767C
:100F5B00C3900097E09414900096E0940050099091
:100F6B0000C5E04404F080079000C5E054FBF0900E
:100F7B0000CCE0FFE4FCFDFE12149F7F0A12187CEC
:100F8B009000CDE0FFE4FCFDFE12149F7F0A1218C7
:100F9B007C9000A3E0FFE4FCFDFE12149F7F0A127D
:100FAB00187C7F0A12187C900168E06401600302D0
:100FBB000C3FF0020C3F22C0E0C0F0C083C082C0E7
:100FCB00D075D000C000C001C002C003C004C00572
:100FDB00C006C007C09153C4EF900161E004F070EC
:100FEB0006900160E004F09001587401F0C3900189
:100FFB0061E09405900160E094004018E4F0A3F0E8
:10100B0090016BE004F0700690016AE004F090012F
:10101B005B7401F0C390016BE0940290016AE09461
:10102B00004018E4F0A3F090016DE004F07006901E
:10103B00016CE004F090015C7401F0C390016DE071
:10104B00940590016CE094004057E4F0A3F09001FC
:10105B0080E004F0700690017FE004F09001717461
:10106B0001F030021E900090E0C39411500B121946
:10107B0086900090E004F0800AC202900090E4F0A9
:10108B0012008030011B9000D9E0C3941E5008E081
:10109B0004F012198C800AC2019000D9E4F01219E5
:1010AB008FC3900180E0940590017FE0940040187D
:1010BB00E4F0A3F0900182E004F07006900181E06F
:1010CB0004F09001727401F0C3900182E0940290DD
:1010DB000181E094004018E4F0A3F090015FE0047C
:1010EB00F0700690015EE004F09001837401F0C390
:1010FB0090015FE0940290015EE094004018E4F0F0
:10110B00A3F0900163E004F07006900162E004F03C
:10111B009001557401F0C3900163E0940590016256
:10112B00E094004018E4F0A3F0900175E004F07037
:10113B0006900174E004F09001677401F0C3900114
:10114B0075E09402900174E094004018E4F0A3F071
:10115B00900177E004F07006900176E004F09001C6
:10116B00687401F090017EE004F0E0C3943C40020F
:10117B00E4F0300A1190016FE0FF90017EE0B507BB
:10118B0005121992C20AD091D007D006D005D0040F
:10119B00D003D002D001D000D0D0D082D083D0F0F9
:1011AB00D0E032608C0004013501450175018601E8
:1011BB00960126012F017201830194011801290167
:1011CB00700181019301090125015C0181019300EB
:1011DB00E9012301490170019700E4010D01370179
:1011EB0060019E00CB010E01250152017F00AF0073
:1011FB00E100FA0145016800AA00E600F0010E01CA
:10120B005E00A000DC00E600FA014A009600C80070
:10121B00D200E6010E008200AA00BE00E600E60046
:10122B006E008C00AA00C800E6005A0078009600F9
:10123B00B400D2450098171C21262B4E00A8101283
:10124B001416181A1C1E20222426282A41009E0040
:10125B004100C300410095004100CA0041009100CC
:10126B004100BB004100DE004100E40041000000F2
:10127B004100A7004100C9004100CB004100CF0055
:10128B00410092004100C0004100C40042009600A2
:10129B00004200BE00004200C100004100010041BD
:1012AB00009F004100C5004100E3024100020041E4
:1012BB0000BD004100C600C189C105C104C100C108
:1012CB0006C108C1034101580041015B0041015CAB
:1012DB000041017100410172004101830041015540
:1012EB00004101560041016700410168004201784D
:1012FB00000041016900C10D41015A0041015D002F
:10130B0041017AA0C10BC10C410173004101660080
:10131B0041017E00607000E50353034C0345033E1F
:10132B000336032E0327031F0316030E030602FDCA
:10133B0002F402EB02E202DB02D302CA02C002B7E2
:10134B0002AD02A3029A02900286027C027202682C
:10135B00025E02530249023F0235022B02210217A1
:10136B00020D020301F901EF01E501DB01D201C816
:10137B0001BF01B501AC01A3019A01910188018064
:10138B000177016F0166015E00C0E0C083C082C0BF
:10139B00D075D000C000C007C091759100E5C0208A
:1013AB00E303021490AFBDEF12063813DB0013E119
:1013BB000813F01813F92013FF28143830143D3894
:1013CB00144240144748144F50147D580000148D9C
:1013DB0043C01002148D90017AE0F5BC53C0DF536B
:1013EB00C0F702148D9000A4E0F5BC02148D43C02D
:1013FB001002148D90015DE0700E9000A5E0F5BC1D
:10140B0090015D7401F0807A90015DE0B4010E9063
:10141B0000A6E0F5BC90015D7402F0806590015D63
:10142B00E06402705D43C010F0D20D805543C010D4
:10143B00805043C010804B43C004804643C01043D0
:10144B00C004803E90015AE070119000A1E5BCF001
:10145B0090015A7401F043C004802790015AE0B404
:10146B0001209000A2E5BCF090015AE4F053C0FBC0
:10147B0080109000A3E5BCF0C20DD20B43C010430B
:10148B00C00453C0F7D091D007D000D0D0D082D0B9
:10149B0083D0E0329001841205EFE4FF7BE87A03FE
:1014AB00F9F8900184E0FCA3E0FDA3E0FEA3E0FFCC
:1014BB0012052AEF2430FF12187C7FC87E0012170A
:1014CB0019E47BE87A03F9F8900184E0FCA3E0FDD2
:1014DB00A3E0FEA3E0FF12052AAC00AD01AE02AF04
:1014EB0003E47B64FAF9F812052AEF2430FF121893
:1014FB007C7FC87E00121719E47B64FAF9F890011F
:10150B0084E0FCA3E0FDA3E0FEA3E0FF12052AAC00
:10151B0000AD01AE02AF03E47B0AFAF9F812052A1B
:10152B00EF2430FF12187C7FC87E00121719E47B62
:10153B000AFAF9F8900184E0FCA3E0FDA3E0FEA316
:10154B00E0FF12052AAF03EF2430FF12187C7FC88F
:10155B007E0012171922C0E0C0F0C083C082C0D039
:10156B0075D000C000C001C002C003C004C005C0DC
:10157B0006C007C091900170E0C394135005E004BE
:10158B00F08018900170E4F0900159E0C394095079
:10159B0005E004F08005900159E4F0900157E0FF5D
:1015AB00900159E0C39F501390016EE00490017BB2
:1015BB00F0E09414400D7414F0800890016EE090EC
:1015CB00017BF0D390017DE0940090017CE09400CE
:1015DB00401990017BE0FF900170E09F500D1219B4
:1015EB0095D20A90017EE090016FF075EC00D091DE
:1015FB00D007D006D005D004D003D002D001D00044
:10160B00D0D0D082D083D0F0D0E032787FE4F6D83F
:10161B00FD9000007FFF7E04E4F0A3DFFCDEFA7593
:10162B00812102166B020C0CE493A3F8E493A34004
:10163B0003F68001F208DFF48029E493A3F8540742
:10164B00240CC8C333C4540F4420C8834004F4563D
:10165B00800146F6DFE4800B010204081020408075
:10166B009011AEE47E019360BCA3FF543F30E509BB
:10167B00541FFEE493A360010ECF54C025E060A875
:10168B0040B8E493A3FAE493A3F8E493A3C8C58208
:10169B00C8CAC583CAF0A3C8C582C8CAC583CADF76
:1016AB00E9DEE780BE900184EBF0A3EAF0A3E9F05A
:1016BB00C39000E6E09F9000E5E09E400DD39001C3
:1016CB0054E09F900153E09E4011900184E0FBA3F6
:1016DB00E0FAA3E0F9E4120429FF227D01ED25E0F5
:1016EB0024E5F582E43400F583E0FAA3E0D39FEA26
:1016FB009E40050DEDB438E5ED240AFF900184E022
:10170B00FBA3E0FAA3E0F9EF1204297F0122900179
:10171B008AEEF0A3EFF043C92090018AE0FEA3E02C
:10172B00FFFBE4C374FF9BFF74FF9EFEE49400FD7C
:10173B00E49400FCEFE48FCC90018AE0FEA3E0FF81
:10174B00FBE4C374FF9BFF74FF9EFEE49400FDE477
:10175B009400FC78081205DB8FCD43C804E5C8C4A0
:10176B00131313540130E0F553C87F53C8FB229079
:10177B000184EBF0A3EAF0A3E9F0A3EDF0E4A3F00E
:10178B00FC900187E0FFECC39F503A900184E0FB93
:10179B00A3E0FAA3E0F91203E3FF7E08900188E0CF
:1017AB00FD6F5401FBEDC313F0AD03ED6004E0647A
:1017BB008CF0EFC313FFDEE4900185E475F00112AA
:1017CB0004D80C80BC900188E0FF22900184EEF0DD
:1017DB00A3EFF043C404900184E0FEA3E0FFFBE41D
:1017EB00C374FF9BFF74FF9EFEE49400FDE4940022
:1017FB00FCEFE48FC5900184E0FEA3E0FFFBE4C3A4
:10180B0074FF9BFF74FF9EFEE49400FDE49400FCC8
:10181B0078081205DB8FC6439C0243A88043C4089B
:10182B0022C0E0C0F0C083C082C0D075D000C00021
:10183B00C001C002C003C004C005C006C007C091F0
:10184B0053E87F1218C3900178EEF0A3EFF09001EC
:10185B00697401F0D091D007D006D005D004D00325
:10186B00D002D001D000D0D0D082D083D0F0D0E045
:10187B0032900188EFF01219A17F517E00121719D7
:10188B00E4900189F0900188E030E00512199E8008
:10189B00031219A17F517E00121719900188E0FFE6
:1018AB00C313F0A3E004F0E0C3940840D812199ED0
:1018BB007F517E0012171922E4FFAFC3EF75F010B2
:1018CB00A4FFAEF0E5C2540FFDE5F0EF4DFF225340
:1018DB00B1FE53B2FE43894053897F43891053892C
:1018EB00DF4388402253E9FE53E9FD43E90843EA0D
:1018FB0002439B0243A8802243E10153E1EF53E1F2
:10190B00DF43A84043A8802253E8F0EF540F42E88E
:10191B00227F02121913120036227F03121913129F
:10192B000036227FC87E001217D62253B3FD43B474
:10193B00022243B11053B2EF2253B3FE43B4012240
:10194B0053B37F43B4802253B1F743B2082253B34E
:10195B00BF43B4402290017A74A0F02290017A74B4
:10196B00A1F0221218DA2212003E221200252212B6
:10197B001903221200552212190322B29122A284BA
:10198B0022D29022C29022D29722C29722D28322B5
:09199B00C28322D29622C29622D8
:00000001FF
