:1000000002161B43B30843B40843B31043B4104370
:10001000B30843B31053C0FE75BE2743C040439B93
:100020000143A880225388BFE4F58BF58D438840B7
:0100300022AD
:0700330002139943E840228B
:10003B00021566E4FF5388BFAF8DEFFEAD8B7C00DE
:10004B00E42DFFEC3EFE43884022E5E8540FFF22EF
:10005B00021831AB07AA067F007E007D007C00AE44
:10006B0002AF037C037DFF12065EE47BFF7A0FF980
:10007B00F812052A22C291220211EC0203CEE86487
:10008B0080F8E933E83360110460F0ED33EC337042
:10009B0009E8FCE9FDEAFEEBFF220460DED3EB9FEF
:1000AB00EA9EE99DE8C2E78CF0C2F795F0400CE8B8
:1000BB00CCF8E9CDF9EACEFAEBCFFB12039985D058
:1000CB00F05804700320D5B3E80470075002B2D582
:1000DB000203D892D5EC0460F7E4CCC0E0C398F8E7
:1000EB00603B94186008400DD0E0FB0203B0E4FBCA
:1000FB00FAC9FC8028E830E406E4C9FBE4CAFCE852
:10010B0030E305E4C9CACBFCE854076010F8C3E937
:10011B0013F9EA13FAEB13FBEC13FCD8F130F52FC0
:10012B00C3E49CFCEF9BFFEE9AFEED99FDD0E0FB48
:10013B00EF4E4D4C701222DB030203D5EC2CFCEF7F
:10014B0033FFEE33FEED33FDED30E7EB0203B0EFA3
:10015B002BFFEE3AFEED39FDD0E0FB50130BBB004D
:10016B00030203D8ED13FDEE13FEEF13FFEC13FCAC
:10017B000203B0EC4D6011E8497017ED33EC33041A
:10018B00600DE4FCFFFEFD22E933E8330470F80256
:10019B0003CE12039958046009E4CC24815006283D
:1001AB0050090203D82840030203D5C0E0EB4A7084
:1001BB0044B98006D0E0FB0203C4EF4E701CBD8037
:1001CB0008EBFFEAFEE9FD80EBE98DF0A4FEE5F01C
:1001DB00020267E9CDF9EAFEEBFFEF89F0A4FCE53B
:1001EB00F0CE89F0A42EFFE435F0CD89F0A42DFEDE
:1001FB00E435F08067EF4E7005BD80D780C3EF8B81
:10020B00F0A4ACF0EE8BF0A42CFCE435F0F8EF8A04
:10021B00F0A42CE5F038FCE433CB8DF0A42CFCE5FA
:10022B00F03BF8EE8AF0A42CFCE5F038F8E433CF81
:10023B0089F0A42CFCE5F038CF3400CE89F0A42F44
:10024B00FFE5F03EFEE433C98DF0A42EFEE5F03958
:10025B00CD8AF0A42FFFE5F03EFEE43DFD33D0E068
:10026B00FB50070BBB000F0203D8EC2CFCEF33FF4A
:10027B00EE33FEED33FD0203B00203D8EC5D0460F8
:10028B0005E8590470030203CE120399580460F673
:10029B00EC4860F2EC7004FDFEFF22C860DB2481A9
:1002AB00C85009C398600250060203D59850CAF58E
:1002BB0082E9294B4A7005AB820203C475F0007CBE
:1002CB001A7880C3EF9BEE9AED99400DC3EF9BFF1D
:1002DB00EE9AFEED99FDE842F0DC23ACF0D0E0FFA6
:1002EB00D0E0FED0E0FDAB8220E7101BEB60BAEC58
:1002FB002CFCEF33FFEE33FEED33FD0203B0E803CE
:10030B00F830E705C0F075F000EF2FFFEE33FEED90
:10031B0033FD40B830E7C280AA75F020800E75F02F
:10032B0010800575F0087D007E007F003392D5307C
:10033B00D5031205BCEC334010EF33FFEE33FEED6B
:10034B0033FDEC33FCD5F0ED22E5F0247EA2D51382
:10035B00CC92E7CDCEFF22EDD2E7CD33EC3392D565
:10036B0024814006E4FFFEFDFC22FCE4CFCECDCC85
:10037B0024E0501174FF80EDC3CC13CCCD13CDCE44
:10038B0013CECF13CF0470F030D5DE0205BCE9D20B
:10039B00E7C933E833F892D5EDD2E7CD33EC33FC34
:1003AB005002B2D522EC30E7100FBF000C0EBE008E
:1003BB00080DBD00040BEB6014A2D5EB13FCED9202
:1003CB00E7FD2274FFFCFDFEFF22E480F8A2D5744A
:1003DB00FF13FC7D80E480EFBB010689828A83E0FA
:1003EB00225002E722BBFE02E32289828A83E49336
:1003FB0022BB010CE58229F582E5833AF583E022E5
:10040B005006E92582F8E622BBFE06E92582F8E2D2
:10041B0022E58229F582E5833AF583E49322BB0139
:10042B000689828A83F0225002F722BBFE01F32257
:10043B00EF8DF0A4A8F0CF8CF0A428CE8DF0A42ED5
:10044B00FE22BC000BBE0029EF8DF084FFADF02225
:10045B00E4CCF875F008EF2FFFEE33FEEC33FCEE37
:10046B009DEC984005FCEE9DFE0FD5F0E9E4CEFD2A
:10047B0022EDF8F5F0EE8420D21CFEADF075F008FD
:10048B00EF2FFFED33FD4007985006D5F0F222C356
:10049B0098FD0FD5F0EA22C2D5EC30E709B2D5E4CE
:1004AB00C39DFDE49CFCEE30E715B2D5E4C39FFF82
:1004BB00E49EFE12044DC3E49DFDE49CFC800312FC
:1004CB00044D30D507C3E49FFFE49EFE22C5F0F830
:1004DB00A3E028F0C5F0F8E582158270021583E0E1
:1004EB0038F02275F008758200EF2FFFEE33FECD4A
:1004FB0033CDCC33CCC58233C5829BED9AEC99E5D9
:10050B008298400CF582EE9BFEED9AFDEC99FC0F68
:10051B00D5F0D6E4CEFBE4CDFAE4CCF9A88222B830
:10052B0000C1B90059BA002DEC8BF084CFCECDFCB5
:10053B00E5F0CBF97818EF2FFFEE33FEED33FDEC42
:10054B0033FCEB33FB10D703994004EB99FB0FD82B
:10055B00E5E4F9FA227818EF2FFFEE33FEED33FDC9
:10056B00EC33FCC933C910D7059BE99A4007EC9BC8
:10057B00FCE99AF90FD8E0E4C9FAE4CCFB2275F058
:10058B0010EF2FFFEE33FEED33FDCC33CCC833C869
:10059B0010D7079BEC9AE899400AED9BFDEC9AFC6F
:1005AB00E899F80FD5F0DAE4CDFBE4CCFAE4C8F91E
:1005BB0022C3E49FFFE49EFEE49DFDE49CFC22EB42
:1005CB009FF5F0EA9E42F0E99D42F0E89C45F0224F
:1005DB00E86010ECA2E713FCED13FDEE13FEEF1336
:1005EB00FFD8F022ECF0A3EDF0A3EEF0A3EFF02296
:1005FB00A8828583F0D083D08212061212061212C3
:10060B000612120612E473E493A3C583C5F0C583E7
:10061B00C8C582C8F0A3C583C5F0C583C8C582C849
:10062B0022A42582F582E5F03583F58322D083D091
:10063B0082F8E4937012740193700DA3A393F87472
:10064B000193F5828883E4737402936860EFA3A32C
:10065B00A380DFEC8EF0A4CCC5F0CCCDF8EFA4CE0C
:10066B00C5F02DFDE43CFCE8A42EC8C5F03DFDE42F
:10067B003CFCEFA4FFE5F028FEE43DFDE43CFC224E
:10068B009000C6E0D394005003020BFC900095E061
:10069B00A3E09000C2F09000CDE090009DF0E490BC
:1006AB0000C9F09000C9E0FFC39405505F9000971C
:1006BB00E0FE9000C2E0FDC39E405174972FF5827F
:1006CB00E43400F583E0FFEDC39F40239000C9E0C5
:1006DB002498F582E43400F583E0FFEDC39F500FBF
:1006EB009000C9E09000BBF0049000B9F0801D9021
:1006FB00009BE0FFEDC39F400B9000BB7403F09099
:10070B0000B904F09000C9E004F08097E49000C9B0
:10071B00F09000A7E0FF90009DE0C39F503F90003A
:10072B00BBE025E02404F582E43400F583E0FCA370
:10073B00E0FDE41203299000D01205EF9000B9E020
:10074B0025E02404F582E43400F583E0FCA3E0FD0E
:10075B00E41203299000D41205EF0209739000C92B
:10076B00E0FF24A7F582E43400F583E0FE90009DC2
:10077B00E0FDC39E500302091C74A82FF582E434DC
:10078B0000F583E0FFEDC39F400302091C9000C9F5
:10079B00E0FF75F00AA4240EF582E43400F583C063
:1007AB0083C0829000BBE0FED082D08375F0021232
:1007BB00062CE0A3E0FDEF75F00AA42404F582E417
:1007CB003400F58375F002EE12062CE0A3E0C39D16
:1007DB0090009FF09000C9E0FF75F00AA4240EF57D
:1007EB0082E43400F583C083C0829000B9E0FED070
:1007FB0082D08375F00212062CE0A3E0FDEF75F0BA
:10080B000AA42404F582E43400F58375F002EE1299
:10081B00062CE0A3E0C39D90009CF09000C9E0245F
:10082B00A7F582E43400F583E0FF90009DE0C39FC1
:10083B00FFE49400FE90009FE0FD7C0012043BACB3
:10084B0006AD07EC120329E4FBFAF9784012028794
:10085B00C004C005C006C0079000C9E075F00AA42B
:10086B002404F582E43400F583C083C0829000BB7E
:10087B00E0D082D08375F00212062CE0FCA3E0FDE1
:10088B00E4120329D003D002D001D00012008990CA
:10089B0000D01205EF9000C9E024A7F582E43400E4
:1008AB00F583E0FF90009DE0C39FFFE49400FE9072
:1008BB00009CE0FD7C0012043BAC06AD07EC120380
:1008CB0029E4FBFAF97840120287C004C005C00680
:1008DB00C0079000C9E075F00AA42404F582E43443
:1008EB0000F583C083C0829000B9E0D082D08375BD
:1008FB00F00212062CE0FCA3E0FDE4120329D00366
:10090B00D002D001D0001200899000D41205EF80E4
:10091B00579000B4E0FF90009DE0C39F403C9000D7
:10092B00BBE025E02486F582E43400F583E0FCA3EC
:10093B00E0FDE41203299000D01205EF9000B9E01E
:10094B0025E02486F582E43400F583E0FCA3E0FD8A
:10095B00E41203299000D41205EF9000C9E004F0D3
:10096B00E0640E600302071C9000BBE02497F58245
:10097B00E43400F583E0FF9000C2E0C39FFDE494F4
:10098B0000FC120329C004C005C006C0079000D4A8
:10099B00E0F8A3E0F9A3E0FAA3E0FB9000D0E0FCC1
:1009AB00A3E0FDA3E0FEA3E0FF120089D003D00279
:1009BB00D001D00012017EE4FBFA79A0784012023C
:1009CB0087A804A905AA06AB079000D0E0FCA3E01A
:1009DB00FDA3E0FEA3E0FF1200899000DD1205EFFE
:1009EB0090009DE0FF9000C6E0C39FFDE49400FCE7
:1009FB001203299000DDE0F8A3E0F9A3E0FAA3E0ED
:100A0B00FB12017EE4FBFA7920784112017EC004CF
:100A1B00C005C006C00790009DE0FFC374379FFD63
:100A2B00E49400FC120329A804A905AA06AB07D07D
:100A3B0007D006D005D0041202879000B51205EF3F
:100A4B009000B5E0FCA3E0FDA3E0FEA3E0FF1203E2
:100A5B00627C007D0A1204A2C3ED9405EC648094C1
:100A6B0080402FE4FBFA792078419000B5E0FCA39D
:100A7B00E0FDA3E0FEA3E0FF120287E4FBFA79801E
:100A8B00783F12008D120362900092EEF0A3EFF00C
:100A9B008023E4FBFA792078419000B5E0FCA3E0D9
:100AAB00FDA3E0FEA3E0FF12028712036290009207
:100ABB00EEF0A3EFF09000CDE0FF9000C6E0D39FE7
:100ACB004011900092E0FFA3E090017ACFF0A3EFEA
:100ADB00F08007E490017AF0A3F09000C6E0FF905D
:100AEB0000CFE0D39F401B90017AE0FEA3E0FF7C98
:100AFB00007D0912043B0D12044D90017AEEF0A318
:100B0B00EFF09000C6E0FF9000CFE0C39F400302E0
:100B1B000BAA9000C6E024F4FF9000CFE0C39F50D7
:100B2B0002D2059000C6E024FAFF9000CFE0C39FED
:100B3B00502130056A90017AE0FEA3E0FF7C007D36
:100B4B000E12043B7D0A12044D90017AEEF0A3EFD6
:100B5B00F0804C9000C6E014FF9000CFE0C39F5094
:100B6B002130053B90017AE0FEA3E0FF7C007D0C79
:100B7B0012043B7D0A12044D90017AEEF0A3EFF0C4
:100B8B00801DC20590017AE0FEA3E0FF7C007D0B87
:100B9B0012043B1D12044D90017AEEF0A3EFF0D33B
:100BAB0090017BE094C890017AE094004006E4F059
:100BBB00A374C8F090017AE0FEA3E0FF7C007D0AED
:100BCB0012044D90016CEFF090017AE0A3E0FF90DE
:100BDB00016CE075F00AA4FEC3EF9E900155F090F6
:100BEB00016CE0D3941440187414F0E4900155F0A8
:100BFB0022E490017AF0A3F090016CF0900155F093
:100C0B002212195E12193312197312197F121987D6
:100C1B0012192112193B12194912194212195712A2
:100C2B0019501200801219941219A0121997120060
:100C3B00031218F5900156E0B40102E4F09001594B
:100C4B00E0B40102E4F090015AE064016003020D8C
:100C5B00B2F0900167E06401703AF0121983EF244F
:100C6B00FD601B04702E900176E0FEA3E0FF1200E6
:100C7B005E9000BDEEF0A3EFF012192A80169001E2
:100C8B0076E0FEA3E0FF12005E9000C0EEF0A3EF53
:100C9B00F01219219000BDE0FEA3E0FFD394E8EE23
:100CAB0094035009C3EF940AEE940050099000C4CA
:100CBB00E04420F080079000C4E054DFF09000C0C7
:100CCB00E0FEA3E0FFD394E8EE94035009C3EF9446
:100CDB000AEE940050099000C4E04410F080079095
:100CEB0000C4E054EFF0C39000BEE094809000BDD0
:100CFB00E0940150077401F0A37480F0C39000C11D
:100D0B00E094809000C0E0940150077401F0A3744C
:100D1B0080F09000BDE0FEA3E0FF7B017A0079CD6F
:100D2B001216B59000C0E0FEA3E0FF7B017A0079BC
:100D3B00CF1216B59000CFE0D3943C40099000C47D
:100D4B00E04402F080079000C4E054FDF09000E115
:100D5B00E024FE602104704F12198E400E1219A070
:100D6B009000C4E04408F0D206803C9000C4E054EC
:100D7B00F7F0C206803112198E40231219A0E490AD
:100D8B000092F0A3F090017AF0A3F090016CF09038
:100D9B000155F09000C4E04408F0D20180099000A6
:100DAB00C4E054F7F0C20190016FE06401600302EC
:100DBB000E8BF03009717B017A0079A07D0212173E
:100DCB007F9000A2E06F705F9000A0E09000CBF0EE
:100DDB009000A1E09000CCF0E09000C6F09000CB2A
:100DEB00E030E0129000E17401F0D200E4900001D9
:100DFB00F01219A080149000CBE030E10D9000E1CF
:100E0B007402F0D204E490009EF09000C6E07006ED
:100E1B00900002F0800F9000C6E0D3940040069043
:100E2B0000027401F0C2099000E1E024FE60360478
:100E3B00704EE4900092F0A3F090017AF0A3F09042
:100E4B00016CF0900155F01219A0300033900001A5
:100E5B00E004F0E0C39411500512198B8022C200FC
:100E6B00120080801B30041890009EE004F0E0C359
:100E7B00941450051219918007C204121994C206DA
:100E8B00900170E064017035F0200B259000C4E0F8
:100E9B009000A3F09000CFE09000A4F07B017A00CB
:100EAB0079A37D0212177F9000A5EFF012196580D0
:100EBB0006300B0312196C43C02053C0F79001533B
:100ECB00E064016003020F88F09000E1E024FE6013
:100EDB0006020F88020F88900002E0146020046065
:100EEB0003020F88E4900092F0A3F090017AF0A334
:100EFB00F090016CF0900155F01219A0807F9000DA
:100F0B00C4E020E110E020E20CE020E308E020E464
:100F1B0004E030E5089000BC7401F08005E490001B
:100F2B00BCF09000BCE014603C04705112198E4070
:100F3B00231219A0E4900092F0A3F090017AF0A391
:100F4B00F090016CF0900155F09000C4E04408F073
:100F5B00D201802912199D9000C4E054F7F0C20110
:100F6B0012068B8018E4900092F0A3F090017AF0B7
:100F7B00A3F090016CF0900155F01219A09001654F
:100F8B00E064017066F0121977900095EEF0A3EF14
:100F9B00F012197BC3900096E09414900095E094A6
:100FAB000050099000C4E04404F080079000C4E0B6
:100FBB0054FBF09000CBE0FFE4FCFDFE1214A47F89
:100FCB000A1218819000CCE0FFE4FCFDFE1214A481
:100FDB007F0A1218819000A2E0FFE4FCFDFE1214C0
:100FEB00A47F0A1218817F0A121881900166E064AF
:100FFB00016003020C3FF0020C3F22608C000401E5
:10100B003501450175018601960126012F017201FB
:10101B0083019401180129017001810193010901D8
:10102B0025015C0181019300E90123014901700154
:10103B009700E4010D01370160019E00CB010E0109
:10104B00250152017F00AF00E100FA014501680064
:10105B00AA00E600F0010E015E00A000DC00E60035
:10106B00FA014A009600C800D200E6010E00820089
:10107B00AA00BE00E600E6006E008C00AA00C800C5
:10108B00E6005A0078009600B400D2450097171C72
:10109B0021262B4E00A710121416181A1C1E2022E4
:1010AB002426282A41009D004100C20041009400E3
:1010BB004100C900410090004100BA004100DC0032
:1010CB004100E200410000004100A6004100C800C1
:1010DB004100CA004100CE00410091004100BF0019
:1010EB004100C30042009500004200BD00004200D9
:1010FB00C000004100010041009E004100C40041BE
:10110B0000E102410002004100BC004100C500C1EA
:10111B0087C103C102C100C104C106C1014101560F
:10112B00004101590041015A0041016F004101701A
:10113B00004101810041015300410154004101650F
:10114B000041016600420176000041016700C10BBE
:10115B004101580041015B00410178A0C109C10A5E
:10116B00410171004101640041017C00607000E3AA
:10117B000353034C0345033E0336032E0327031F80
:10118B000316030E030602FD02F402EB02E202DB7E
:10119B0002D302CA02C002B702AD02A3029A0290A6
:1011AB000286027C02720268025E02530249023F0F
:1011BB000235022B02210217020D020301F901EF86
:1011CB0001E501DB01D201C801BF01B501AC01A3EF
:1011DB00019A0191018801800177016F0166015E1F
:1011EB0000C0E0C0F0C083C082C0D075D000C0008A
:1011FB00C001C002C003C004C005C006C007C09137
:10120B0053C4EF90015FE004F0700690015EE004C0
:10121B00F09001567401F0C390015FE094059001CA
:10122B005EE094004018E4F0A3F0900169E004F054
:10123B007006900168E004F09001597401F0C390BE
:10124B000169E09402900168E094004018E4F0A377
:10125B00F090016BE004F0700690016AE004F090EE
:10126B00015A7401F0C390016BE0940590016AE0A0
:10127B0094004018E4F0A3F090017EE004F07006B7
:10128B0090017DE004F090016F7401F0C390017E3A
:10129B00E0940590017DE094004018E4F0A3F090F9
:1012AB000180E004F0700690017FE004F090017083
:1012BB007401F0C3900180E0940290017FE09400F0
:1012CB004018E4F0A3F090015DE004F0700690018B
:1012DB005CE004F09001817401F0C390015DE09437
:1012EB000290015CE094004018E4F0A3F0900161DF
:1012FB00E004F07006900160E004F090015374017B
:10130B00F0C3900161E09405900160E094004018F7
:10131B00E4F0A3F0900173E004F07006900172E02A
:10132B0004F09001657401F0C3900173E094029096
:10133B000172E094004018E4F0A3F0900175E00412
:10134B00F07006900174E004F09001667401F09067
:10135B00017CE004F0E0C3943C4002E4F03008115F
:10136B0090016DE0FF90017CE0B50705121997C263
:10137B0008D091D007D006D005D004D003D002D02E
:10138B0001D000D0D0D082D083D0F0D0E032C0E0FA
:10139B00C083C082C0D075D000C000C007C091759B
:1013AB009100E5C020E303021495AFBDEF120638A0
:1013BB0013E00013E60813F51813FE201404281489
:1013CB003D30144238144740144C48145450148286
:1013DB00580000149243C010021492900178E0F56B
:1013EB00BC53C0DF53C0F70214929000A3E0F5BCCE
:1013FB0002149243C01002149290015BE0700E90A5
:10140B0000A4E0F5BC90015B7401F0807A90015B65
:10141B00E0B4010E9000A5E0F5BC90015B7402F006
:10142B00806590015BE06402705D43C010F0D20BED
:10143B00805543C010805043C010804B43C0048084
:10144B004643C01043C004803E900158E070119099
:10145B0000A0E5BCF09001587401F043C004802754
:10146B00900158E0B401209000A1E5BCF090015828
:10147B00E4F053C0FB80109000A2E5BCF0C20BD28D
:10148B000943C01043C00453C0F7D091D007D0001C
:10149B00D0D0D082D083D0E0329001821205EFE41D
:1014AB00FF7BE87A03F9F8900182E0FCA3E0FDA34F
:1014BB00E0FEA3E0FF12052AEF2430FF1218817F14
:1014CB00C87E0012171EE47BE87A03F9F8900182BC
:1014DB00E0FCA3E0FDA3E0FEA3E0FF12052AAC00B5
:1014EB00AD01AE02AF03E47B64FAF9F812052AEF03
:1014FB002430FF1218817FC87E0012171EE47B6414
:10150B00FAF9F8900182E0FCA3E0FDA3E0FEA3E072
:10151B00FF12052AAC00AD01AE02AF03E47B0AFA61
:10152B00F9F812052AEF2430FF1218817FC87E00CC
:10153B0012171EE47B0AFAF9F8900182E0FCA3E093
:10154B00FDA3E0FEA3E0FF12052AAF03EF2430FF5B
:10155B001218817FC87E0012171E22C0E0C0F0C097
:10156B0083C082C0D075D000C000C001C002C003D0
:10157B00C004C005C006C007C09190016EE0C394C3
:10158B00135005E004F0801890016EE4F0900157C1
:10159B00E0C394095005E004F08005900157E4F096
:1015AB00900155E0FF900157E0C39F501390016CE1
:1015BB00E004900179F0E09414400D7414F080086D
:1015CB0090016CE0900179F0D390017BE094009056
:1015DB00017AE094004019900179E0FF90016EE0F0
:1015EB009F500D12199AD20890017CE090016DF07A
:1015FB0075EC00D091D007D006D005D004D003D025
:10160B0002D001D000D0D0D082D083D0F0D0E03245
:10161B00787FE4F6D8FD9000007FFF7E04E4F0A312
:10162B00DFFCDEFA758121021670020C0CE493A329
:10163B00F8E493A34003F68001F208DFF48029E479
:10164B0093A3F85407240CC8C333C4540F4420C8C5
:10165B00834004F456800146F6DFE4800B0102045C
:10166B000810204080901006E47E019360BCA3FF1D
:10167B00543F30E509541FFEE493A360010ECF5491
:10168B00C025E060A840B8E493A3FAE493A3F8E480
:10169B0093A3C8C582C8CAC583CAF0A3C8C582C8EC
:1016AB00CAC583CADFE9DEE780BE900182EBF0A3F7
:1016BB00EAF0A3E9F0C39000E4E09F9000E3E09E22
:1016CB00400DD3900152E09F900151E09E4011904C
:1016DB000182E0FBA3E0FAA3E0F9E4120429FF2264
:1016EB007D01ED25E024E3F582E43400F583E0FA97
:1016FB00A3E0D39FEA9E40050DEDB438E5ED240A37
:10170B00FF900182E0FBA3E0FAA3E0F9EF120429BA
:10171B007F0122900188EEF0A3EFF043C9209001E6
:10172B0088E0FEA3E0FFFBE4C374FF9BFF74FF9E06
:10173B00FEE49400FDE49400FCEFE48FCC90018870
:10174B00E0FEA3E0FFFBE4C374FF9BFF74FF9EFE70
:10175B00E49400FDE49400FC78081205DB8FCD4384
:10176B00C804E5C8C4131313540130E0F553C87F04
:10177B0053C8FB22900182EBF0A3EAF0A3E9F0A39C
:10178B00EDF0E4A3F0FC900185E0FFECC39F503A31
:10179B00900182E0FBA3E0FAA3E0F91203E3FF7EE2
:1017AB0008900186E0FD6F5401FBEDC313F0AD0310
:1017BB00ED6004E0648CF0EFC313FFDEE490018373
:1017CB00E475F0011204D80C80BC900186E0FF2276
:1017DB00900182EEF0A3EFF043C404900182E0FE8F
:1017EB00A3E0FFFBE4C374FF9BFF74FF9EFEE49436
:1017FB0000FDE49400FCEFE48FC5900182E0FEA3B2
:10180B00E0FFFBE4C374FF9BFF74FF9EFEE49400B8
:10181B00FDE49400FC78081205DB8FC6439C024361
:10182B00A88043C40822C0E0C0F0C083C082C0D0EF
:10183B0075D000C000C001C002C003C004C005C009
:10184B0006C007C09153E87F1218C8900176EEF0DE
:10185B00A3EFF09001677401F0D091D007D006D0C0
:10186B0005D004D003D002D001D000D0D0D082D08C
:10187B0083D0F0D0E032900186EFF01219A67F51A1
:10188B007E0012171EE4900187F0900186E030E095
:10189B00051219A380031219A67F517E0012171E81
:1018AB00900186E0FFC313F0A3E004F0E0C39408BB
:1018BB0040D81219A37F517E0012171E22E4FFAFEE
:1018CB00C3EF75F010A4FFAEF0E5C2540FFDE5F0C9
:1018DB00EF4DFF2253B1FE53B2FE43894053897F34
:1018EB004389105389DF4388402253E9FE53E9FDB6
:1018FB0043E90843EA02439B0243A8802243E101E8
:10190B0053E1EF53E1DF43A84043A8802253E8F0B3
:10191B00EF540F42E8227F02121918120036227F71
:10192B0003121918120036227FC87E001217DB2211
:10193B0053B3FD43B4022243B11053B2EF2253B35E
:10194B00FE43B4012253B37F43B4802253B1F74318
:10195B00B2082253B3BF43B4402290017874A0F075
:10196B002290017874A1F0221218DF2212003E227D
:10197B0012002522121908221200552212190822D0
:10198B00B29122A28422D29022C29022D29722C25A
:0E199B009722D28322C28322D29622C29622A3
:00000001FF
